{
  "address": "0xf7a84D01F4041D8719d27a8268Dc097b257C04FC",
  "abi": [
    {
      "anonymous": false,
      "inputs": [
        {
          "indexed": true,
          "internalType": "address",
          "name": "depositor",
          "type": "address"
        },
        {
          "indexed": true,
          "internalType": "address",
          "name": "contract_",
          "type": "address"
        },
        {
          "indexed": false,
          "internalType": "uint256",
          "name": "tokenId",
          "type": "uint256"
        }
      ],
      "name": "LentCanceled",
      "type": "event"
    },
    {
      "anonymous": false,
      "inputs": [
        {
          "indexed": true,
          "internalType": "address",
          "name": "previousOwner",
          "type": "address"
        },
        {
          "indexed": true,
          "internalType": "address",
          "name": "newOwner",
          "type": "address"
        }
      ],
      "name": "OwnershipTransferred",
      "type": "event"
    },
    {
      "anonymous": false,
      "inputs": [
        {
          "indexed": true,
          "internalType": "address",
          "name": "depositer",
          "type": "address"
        },
        {
          "indexed": true,
          "internalType": "address",
          "name": "contract_",
          "type": "address"
        },
        {
          "indexed": false,
          "internalType": "uint256",
          "name": "tokenId",
          "type": "uint256"
        },
        {
          "indexed": false,
          "internalType": "uint256",
          "name": "unitFee",
          "type": "uint256"
        }
      ],
      "name": "TokenLent",
      "type": "event"
    },
    {
      "anonymous": false,
      "inputs": [
        {
          "indexed": true,
          "internalType": "address",
          "name": "renter",
          "type": "address"
        },
        {
          "indexed": false,
          "internalType": "uint256",
          "name": "rentIdx",
          "type": "uint256"
        },
        {
          "indexed": true,
          "internalType": "address",
          "name": "contract_",
          "type": "address"
        },
        {
          "indexed": false,
          "internalType": "uint256",
          "name": "tokenId",
          "type": "uint256"
        }
      ],
      "name": "TokenRented",
      "type": "event"
    },
    {
      "inputs": [],
      "name": "adVault",
      "outputs": [
        {
          "internalType": "address",
          "name": "",
          "type": "address"
        }
      ],
      "stateMutability": "view",
      "type": "function"
    },
    {
      "inputs": [
        {
          "internalType": "address",
          "name": "payment",
          "type": "address"
        }
      ],
      "name": "addPayment",
      "outputs": [],
      "stateMutability": "nonpayable",
      "type": "function"
    },
    {
      "inputs": [
        {
          "internalType": "address",
          "name": "contract_",
          "type": "address"
        },
        {
          "internalType": "uint256",
          "name": "tokenId",
          "type": "uint256"
        }
      ],
      "name": "cancelLend",
      "outputs": [],
      "stateMutability": "nonpayable",
      "type": "function"
    },
    {
      "inputs": [],
      "name": "commission",
      "outputs": [
        {
          "internalType": "uint256",
          "name": "",
          "type": "uint256"
        }
      ],
      "stateMutability": "view",
      "type": "function"
    },
    {
      "inputs": [],
      "name": "createVault",
      "outputs": [],
      "stateMutability": "nonpayable",
      "type": "function"
    },
    {
      "inputs": [],
      "name": "feeBase",
      "outputs": [
        {
          "internalType": "uint256",
          "name": "",
          "type": "uint256"
        }
      ],
      "stateMutability": "view",
      "type": "function"
    },
    {
      "inputs": [
        {
          "internalType": "address",
          "name": "renter",
          "type": "address"
        },
        {
          "internalType": "address",
          "name": "contract_",
          "type": "address"
        }
      ],
      "name": "getAliveRentals",
      "outputs": [
        {
          "components": [
            {
              "internalType": "address",
              "name": "renter",
              "type": "address"
            },
            {
              "internalType": "address",
              "name": "contract_",
              "type": "address"
            },
            {
              "internalType": "uint256",
              "name": "tokenId",
              "type": "uint256"
            },
            {
              "internalType": "address",
              "name": "vault",
              "type": "address"
            },
            {
              "internalType": "uint256",
              "name": "endTime",
              "type": "uint256"
            }
          ],
          "internalType": "struct IRentFun.Rental[]",
          "name": "aliveRentals",
          "type": "tuple[]"
        }
      ],
      "stateMutability": "view",
      "type": "function"
    },
    {
      "inputs": [],
      "name": "getOwners",
      "outputs": [
        {
          "internalType": "address[]",
          "name": "",
          "type": "address[]"
        }
      ],
      "stateMutability": "view",
      "type": "function"
    },
    {
      "inputs": [],
      "name": "getPaymentContracts",
      "outputs": [
        {
          "internalType": "address[]",
          "name": "",
          "type": "address[]"
        }
      ],
      "stateMutability": "view",
      "type": "function"
    },
    {
      "inputs": [
        {
          "internalType": "address",
          "name": "contract_",
          "type": "address"
        },
        {
          "internalType": "uint256",
          "name": "tokenId",
          "type": "uint256"
        }
      ],
      "name": "getTokenHash",
      "outputs": [
        {
          "internalType": "bytes32",
          "name": "",
          "type": "bytes32"
        }
      ],
      "stateMutability": "pure",
      "type": "function"
    },
    {
      "inputs": [
        {
          "internalType": "address",
          "name": "contractOwner",
          "type": "address"
        },
        {
          "internalType": "address",
          "name": "adVault_",
          "type": "address"
        },
        {
          "internalType": "uint256",
          "name": "unitTime_",
          "type": "uint256"
        },
        {
          "internalType": "uint256",
          "name": "commission_",
          "type": "uint256"
        }
      ],
      "name": "initialize",
      "outputs": [],
      "stateMutability": "nonpayable",
      "type": "function"
    },
    {
      "inputs": [
        {
          "internalType": "address",
          "name": "contract_",
          "type": "address"
        },
        {
          "internalType": "uint256",
          "name": "tokenId",
          "type": "uint256"
        }
      ],
      "name": "isRented",
      "outputs": [
        {
          "internalType": "bool",
          "name": "",
          "type": "bool"
        }
      ],
      "stateMutability": "view",
      "type": "function"
    },
    {
      "inputs": [
        {
          "internalType": "address",
          "name": "contract_",
          "type": "address"
        },
        {
          "internalType": "uint256",
          "name": "tokenId",
          "type": "uint256"
        },
        {
          "internalType": "address",
          "name": "payment",
          "type": "address"
        },
        {
          "internalType": "uint256",
          "name": "unitFee",
          "type": "uint256"
        }
      ],
      "name": "lend",
      "outputs": [],
      "stateMutability": "nonpayable",
      "type": "function"
    },
    {
      "inputs": [],
      "name": "nextTokenIdx",
      "outputs": [
        {
          "internalType": "uint256",
          "name": "",
          "type": "uint256"
        }
      ],
      "stateMutability": "view",
      "type": "function"
    },
    {
      "inputs": [],
      "name": "owner",
      "outputs": [
        {
          "internalType": "address",
          "name": "",
          "type": "address"
        }
      ],
      "stateMutability": "view",
      "type": "function"
    },
    {
      "inputs": [
        {
          "internalType": "address",
          "name": "",
          "type": "address"
        }
      ],
      "name": "partners",
      "outputs": [
        {
          "internalType": "address",
          "name": "feeReceiver",
          "type": "address"
        },
        {
          "internalType": "uint256",
          "name": "commission",
          "type": "uint256"
        }
      ],
      "stateMutability": "view",
      "type": "function"
    },
    {
      "inputs": [
        {
          "internalType": "address",
          "name": "",
          "type": "address"
        }
      ],
      "name": "payments",
      "outputs": [
        {
          "internalType": "uint256",
          "name": "",
          "type": "uint256"
        }
      ],
      "stateMutability": "view",
      "type": "function"
    },
    {
      "inputs": [],
      "name": "renounceOwnership",
      "outputs": [],
      "stateMutability": "nonpayable",
      "type": "function"
    },
    {
      "inputs": [
        {
          "internalType": "address",
          "name": "contract_",
          "type": "address"
        },
        {
          "internalType": "uint256",
          "name": "tokenId",
          "type": "uint256"
        },
        {
          "internalType": "uint256",
          "name": "amount",
          "type": "uint256"
        }
      ],
      "name": "rent",
      "outputs": [],
      "stateMutability": "payable",
      "type": "function"
    },
    {
      "inputs": [
        {
          "internalType": "uint256",
          "name": "",
          "type": "uint256"
        }
      ],
      "name": "rentals",
      "outputs": [
        {
          "internalType": "address",
          "name": "renter",
          "type": "address"
        },
        {
          "internalType": "address",
          "name": "contract_",
          "type": "address"
        },
        {
          "internalType": "uint256",
          "name": "tokenId",
          "type": "uint256"
        },
        {
          "internalType": "address",
          "name": "vault",
          "type": "address"
        },
        {
          "internalType": "uint256",
          "name": "endTime",
          "type": "uint256"
        }
      ],
      "stateMutability": "view",
      "type": "function"
    },
    {
      "inputs": [
        {
          "internalType": "address",
          "name": "adVault_",
          "type": "address"
        }
      ],
      "name": "setAdVault",
      "outputs": [],
      "stateMutability": "nonpayable",
      "type": "function"
    },
    {
      "inputs": [
        {
          "internalType": "uint256",
          "name": "commission_",
          "type": "uint256"
        }
      ],
      "name": "setCommission",
      "outputs": [],
      "stateMutability": "nonpayable",
      "type": "function"
    },
    {
      "inputs": [
        {
          "internalType": "address",
          "name": "contract_",
          "type": "address"
        },
        {
          "internalType": "address",
          "name": "feeReceiver_",
          "type": "address"
        },
        {
          "internalType": "uint256",
          "name": "commission_",
          "type": "uint256"
        }
      ],
      "name": "setPartners",
      "outputs": [],
      "stateMutability": "nonpayable",
      "type": "function"
    },
    {
      "inputs": [
        {
          "internalType": "uint256",
          "name": "unitTime_",
          "type": "uint256"
        }
      ],
      "name": "setUnitTime",
      "outputs": [],
      "stateMutability": "nonpayable",
      "type": "function"
    },
    {
      "inputs": [
        {
          "internalType": "uint256",
          "name": "",
          "type": "uint256"
        }
      ],
      "name": "tokenDetails",
      "outputs": [
        {
          "internalType": "address",
          "name": "contract_",
          "type": "address"
        },
        {
          "internalType": "uint256",
          "name": "tokenId",
          "type": "uint256"
        },
        {
          "internalType": "address",
          "name": "depositor",
          "type": "address"
        },
        {
          "internalType": "address",
          "name": "vault",
          "type": "address"
        },
        {
          "internalType": "address",
          "name": "payment",
          "type": "address"
        },
        {
          "internalType": "uint256",
          "name": "unitFee",
          "type": "uint256"
        },
        {
          "internalType": "uint256",
          "name": "lastRentIdx",
          "type": "uint256"
        },
        {
          "internalType": "uint256",
          "name": "endTime",
          "type": "uint256"
        },
        {
          "internalType": "enum Enum.RentStatus",
          "name": "rentStatus",
          "type": "uint8"
        }
      ],
      "stateMutability": "view",
      "type": "function"
    },
    {
      "inputs": [
        {
          "internalType": "bytes32",
          "name": "",
          "type": "bytes32"
        }
      ],
      "name": "tokenIdxes",
      "outputs": [
        {
          "internalType": "uint256",
          "name": "",
          "type": "uint256"
        }
      ],
      "stateMutability": "view",
      "type": "function"
    },
    {
      "inputs": [],
      "name": "totalRentCount",
      "outputs": [
        {
          "internalType": "uint256",
          "name": "",
          "type": "uint256"
        }
      ],
      "stateMutability": "view",
      "type": "function"
    },
    {
      "inputs": [
        {
          "internalType": "address",
          "name": "newOwner",
          "type": "address"
        }
      ],
      "name": "transferOwnership",
      "outputs": [],
      "stateMutability": "nonpayable",
      "type": "function"
    },
    {
      "inputs": [],
      "name": "unitTime",
      "outputs": [
        {
          "internalType": "uint256",
          "name": "",
          "type": "uint256"
        }
      ],
      "stateMutability": "view",
      "type": "function"
    },
    {
      "inputs": [
        {
          "internalType": "address",
          "name": "",
          "type": "address"
        }
      ],
      "name": "vaults",
      "outputs": [
        {
          "internalType": "address",
          "name": "",
          "type": "address"
        }
      ],
      "stateMutability": "view",
      "type": "function"
    }
  ],
  "transactionHash": "0xa9875f18d8a816b8c9cf16aeedbf0933a34bf6cf5de47cbf125ff392b6320ac7",
  "args": [],
  "numDeployments": 2,
  "solcInputHash": "ccf4f2bcdf7b76ecf1a6946a23c46831",
  "bytecode": "0x60806040526001600d5560006010553480156200001b57600080fd5b506200003c620000306200004260201b60201c565b6200004a60201b60201c565b6200010e565b600033905090565b60008060009054906101000a900473ffffffffffffffffffffffffffffffffffffffff169050816000806101000a81548173ffffffffffffffffffffffffffffffffffffffff021916908373ffffffffffffffffffffffffffffffffffffffff1602179055508173ffffffffffffffffffffffffffffffffffffffff168173ffffffffffffffffffffffffffffffffffffffff167f8be0079c531659141344cd1fd0a4f28419497f9722a3daafe3b4186f6b6457e060405160405180910390a35050565b6152e4806200011e6000396000f3fe608060405260043610620001fa5760003560e01c806395c33652116200010f578063d875cf9611620000a3578063edf06f7b116200006d578063edf06f7b146200073c578063f2fde38b146200076a578063f7019fc51462000798578063fc314e3114620007c657620001fa565b8063d875cf96146200066a578063e1489191146200069a578063e2982c2114620006ca578063eb990c59146200070e57620001fa565b8063a622ee7c11620000e5578063a622ee7c146200056a578063aa6ae6d014620005ae578063af94a1d114620005f2578063b61096f4146200063a57620001fa565b806395c3365214620004c557806395e911a8146200050a578063a0e67e2b146200053a57620001fa565b8063355e6b4311620001935780636c492321116200015d5780636c492321146200041b578063715018a6146200044b5780638da5cb5b1462000465578063904f3a63146200049557620001fa565b8063355e6b43146200036f5780633e18375c146200039d5780634dc32a1814620003e15780635d12928b146200040157620001fa565b80632066ab4811620001d55780632066ab4814620002b5578063289799b714620002e35780632936d92214620003115780632b4af15b146200033f57620001fa565b8063094f743e14620001ff5780630a8bb57314620002435780631144a49d1462000287575b600080fd5b3480156200020c57600080fd5b506200022b6004803603810190620002259190620034e3565b62000812565b6040516200023a919062003df2565b60405180910390f35b3480156200025057600080fd5b506200026f600480360381019062000269919062003612565b62000936565b6040516200027e919062004092565b60405180910390f35b3480156200029457600080fd5b50620002b36004803603810190620002ad919062003421565b6200094e565b005b348015620002c257600080fd5b50620002e16004803603810190620002db919062003388565b62000a7a565b005b348015620002f057600080fd5b506200030f60048036038101906200030991906200363e565b62000ac8565b005b3480156200031e57600080fd5b506200033d600480360381019062000337919062003524565b62000adc565b005b3480156200034c57600080fd5b506200035762001127565b60405162000366919062003daa565b60405180910390f35b3480156200037c57600080fd5b506200039b60048036038101906200039591906200363e565b6200113a565b005b348015620003aa57600080fd5b50620003c96004803603810190620003c39190620034e3565b62001196565b604051620003d8919062003e0f565b60405180910390f35b620003ff6004803603810190620003f9919062003590565b620011cb565b005b3480156200040e57600080fd5b506200041962001dea565b005b3480156200042857600080fd5b506200043362001ec8565b60405162000442919062004092565b60405180910390f35b3480156200045857600080fd5b506200046362001ece565b005b3480156200047257600080fd5b506200047d62001ee6565b6040516200048c919062003c27565b60405180910390f35b348015620004a257600080fd5b50620004ad62001f0f565b604051620004bc919062003c27565b60405180910390f35b348015620004d257600080fd5b50620004f16004803603810190620004eb919062003388565b62001f35565b6040516200050192919062003cde565b60405180910390f35b3480156200051757600080fd5b506200052262001f79565b60405162000531919062004092565b60405180910390f35b3480156200054757600080fd5b506200055262001f7f565b60405162000561919062003daa565b60405180910390f35b3480156200057757600080fd5b5062000596600480360381019062000590919062003388565b62001f92565b604051620005a5919062003c27565b60405180910390f35b348015620005bb57600080fd5b50620005da6004803603810190620005d49190620033e0565b62001fc5565b604051620005e9919062003dce565b60405180910390f35b348015620005ff57600080fd5b506200061e60048036038101906200061891906200363e565b620023d0565b6040516200063195949392919062003c81565b60405180910390f35b3480156200064757600080fd5b506200065262002466565b60405162000661919062004092565b60405180910390f35b3480156200067757600080fd5b50620006826200246c565b60405162000691919062004092565b60405180910390f35b348015620006a757600080fd5b50620006b262002472565b604051620006c1919062004092565b60405180910390f35b348015620006d757600080fd5b50620006f66004803603810190620006f0919062003388565b62002478565b60405162000705919062004092565b60405180910390f35b3480156200071b57600080fd5b506200073a600480360381019062000734919062003477565b62002490565b005b3480156200074957600080fd5b5062000768600480360381019062000762919062003388565b6200255b565b005b3480156200077757600080fd5b5062000796600480360381019062000790919062003388565b6200257f565b005b348015620007a557600080fd5b50620007c46004803603810190620007be9190620034e3565b6200260a565b005b348015620007d357600080fd5b50620007f26004803603810190620007ec91906200363e565b62002887565b604051620008099998979695949392919062003d0b565b60405180910390f35b60008062000821848462001196565b90506000600f60008381526020019081526020016000205414156200084b57600091505062000930565b60038081111562000885577f4e487b7100000000000000000000000000000000000000000000000000000000600052602160045260246000fd5b600e6000600f600085815260200190815260200160002054815260200190815260200160002060080160009054906101000a900460ff166003811115620008f5577f4e487b7100000000000000000000000000000000000000000000000000000000600052602160045260246000fd5b1415806200092c575042600e6000600f60008581526020019081526020016000205481526020019081526020016000206007015410155b9150505b92915050565b600f6020528060005260406000206000915090505481565b6200095862002962565b612710811115620009a0576040517f08c379a0000000000000000000000000000000000000000000000000000000008152600401620009979062003fa4565b60405180910390fd5b60405180604001604052808373ffffffffffffffffffffffffffffffffffffffff16815260200182815250600c60008573ffffffffffffffffffffffffffffffffffffffff1673ffffffffffffffffffffffffffffffffffffffff16815260200190815260200160002060008201518160000160006101000a81548173ffffffffffffffffffffffffffffffffffffffff021916908373ffffffffffffffffffffffffffffffffffffffff1602179055506020820151816001015590505062000a7483600a620029e790919063ffffffff16565b50505050565b62000a8462002962565b80600360006101000a81548173ffffffffffffffffffffffffffffffffffffffff021916908373ffffffffffffffffffffffffffffffffffffffff16021790555050565b62000ad262002962565b8060018190555050565b62000af282600762002a1990919063ffffffff16565b62000b34576040517f08c379a000000000000000000000000000000000000000000000000000000000815260040162000b2b9062003efa565b60405180910390fd5b600073ffffffffffffffffffffffffffffffffffffffff16600660003373ffffffffffffffffffffffffffffffffffffffff1673ffffffffffffffffffffffffffffffffffffffff16815260200190815260200160002060009054906101000a900473ffffffffffffffffffffffffffffffffffffffff1673ffffffffffffffffffffffffffffffffffffffff16141562000bd55762000bd43362002a4b565b5b6000600660003373ffffffffffffffffffffffffffffffffffffffff1673ffffffffffffffffffffffffffffffffffffffff16815260200190815260200160002060009054906101000a900473ffffffffffffffffffffffffffffffffffffffff1690508073ffffffffffffffffffffffffffffffffffffffff168573ffffffffffffffffffffffffffffffffffffffff16636352211e866040518263ffffffff1660e01b815260040162000c8b919062004092565b60206040518083038186803b15801562000ca457600080fd5b505afa15801562000cb9573d6000803e3d6000fd5b505050506040513d601f19601f8201168201806040525081019062000cdf9190620033b4565b73ffffffffffffffffffffffffffffffffffffffff161462000d6f578473ffffffffffffffffffffffffffffffffffffffff166323b872dd3383876040518463ffffffff1660e01b815260040162000d3a9392919062003c44565b600060405180830381600087803b15801562000d5557600080fd5b505af115801562000d6a573d6000803e3d6000fd5b505050505b600062000d7d868662001196565b90506000600f600083815260200190815260200160002054141562000dcd57600d600081548092919062000db19062004364565b91905055600f6000838152602001908152602001600020819055505b6040518061012001604052808773ffffffffffffffffffffffffffffffffffffffff1681526020018681526020013373ffffffffffffffffffffffffffffffffffffffff1681526020018373ffffffffffffffffffffffffffffffffffffffff1681526020018573ffffffffffffffffffffffffffffffffffffffff168152602001848152602001600e6000600f6000868152602001908152602001600020548152602001908152602001600020600601548152602001600e6000600f60008681526020019081526020016000205481526020019081526020016000206007015481526020016001600381111562000eee577f4e487b7100000000000000000000000000000000000000000000000000000000600052602160045260246000fd5b815250600e6000600f600085815260200190815260200160002054815260200190815260200160002060008201518160000160006101000a81548173ffffffffffffffffffffffffffffffffffffffff021916908373ffffffffffffffffffffffffffffffffffffffff1602179055506020820151816001015560408201518160020160006101000a81548173ffffffffffffffffffffffffffffffffffffffff021916908373ffffffffffffffffffffffffffffffffffffffff16021790555060608201518160030160006101000a81548173ffffffffffffffffffffffffffffffffffffffff021916908373ffffffffffffffffffffffffffffffffffffffff16021790555060808201518160040160006101000a81548173ffffffffffffffffffffffffffffffffffffffff021916908373ffffffffffffffffffffffffffffffffffffffff16021790555060a0820151816005015560c0820151816006015560e082015181600701556101008201518160080160006101000a81548160ff02191690836003811115620010ae577f4e487b7100000000000000000000000000000000000000000000000000000000600052602160045260246000fd5b02179055509050508573ffffffffffffffffffffffffffffffffffffffff163373ffffffffffffffffffffffffffffffffffffffff167f20e39ccb28ff62b0dd3a76715db2c58ac9712bb67fb9527d9cfc73e15c0ba296878660405162001117929190620040af565b60405180910390a3505050505050565b606062001135600762002b79565b905090565b6200114462002962565b6103e88111156200118c576040517f08c379a0000000000000000000000000000000000000000000000000000000008152600401620011839062003ed8565b60405180910390fd5b8060028190555050565b60008282604051602001620011ad92919062003bc7565b60405160208183030381529060405280519060200120905092915050565b6000620011d9848462001196565b90506000600f60008381526020019081526020016000205490506000600e6000838152602001908152602001600020604051806101200160405290816000820160009054906101000a900473ffffffffffffffffffffffffffffffffffffffff1673ffffffffffffffffffffffffffffffffffffffff1673ffffffffffffffffffffffffffffffffffffffff168152602001600182015481526020016002820160009054906101000a900473ffffffffffffffffffffffffffffffffffffffff1673ffffffffffffffffffffffffffffffffffffffff1673ffffffffffffffffffffffffffffffffffffffff1681526020016003820160009054906101000a900473ffffffffffffffffffffffffffffffffffffffff1673ffffffffffffffffffffffffffffffffffffffff1673ffffffffffffffffffffffffffffffffffffffff1681526020016004820160009054906101000a900473ffffffffffffffffffffffffffffffffffffffff1673ffffffffffffffffffffffffffffffffffffffff1673ffffffffffffffffffffffffffffffffffffffff1681526020016005820154815260200160068201548152602001600782015481526020016008820160009054906101000a900460ff166003811115620013e0577f4e487b7100000000000000000000000000000000000000000000000000000000600052602160045260246000fd5b600381111562001419577f4e487b7100000000000000000000000000000000000000000000000000000000600052602160045260246000fd5b815250509050600160038111156200145a577f4e487b7100000000000000000000000000000000000000000000000000000000600052602160045260246000fd5b816101000151600381111562001499577f4e487b7100000000000000000000000000000000000000000000000000000000600052602160045260246000fd5b14806200152d575060026003811115620014dc577f4e487b7100000000000000000000000000000000000000000000000000000000600052602160045260246000fd5b81610100015160038111156200151b577f4e487b7100000000000000000000000000000000000000000000000000000000600052602160045260246000fd5b1480156200152c5750428160e00151105b5b6200156f576040517f08c379a0000000000000000000000000000000000000000000000000000000008152600401620015669062003e50565b60405180910390fd5b60008411620015b5576040517f08c379a0000000000000000000000000000000000000000000000000000000008152600401620015ac9062003fe8565b60405180910390fd5b8573ffffffffffffffffffffffffffffffffffffffff16636352211e866040518263ffffffff1660e01b8152600401620015f0919062004092565b60206040518083038186803b1580156200160957600080fd5b505afa1580156200161e573d6000803e3d6000fd5b505050506040513d601f19601f82011682018060405250810190620016449190620033b4565b73ffffffffffffffffffffffffffffffffffffffff16816060015173ffffffffffffffffffffffffffffffffffffffff1614620016b8576040517f08c379a0000000000000000000000000000000000000000000000000000000008152600401620016af9062003e72565b60405180910390fd5b6000620016d3858360a0015162002b9c90919063ffffffff16565b9050600073ffffffffffffffffffffffffffffffffffffffff16826080015173ffffffffffffffffffffffffffffffffffffffff161415620017555780341462001754576040517f08c379a00000000000000000000000000000000000000000000000000000000081526004016200174b9062003f82565b60405180910390fd5b5b600062001784612710620017756002548562002b9c90919063ffffffff16565b62002bb490919063ffffffff16565b905060006200179d828462002bcc90919063ffffffff16565b905060006200180e612710620017ff600c60008e73ffffffffffffffffffffffffffffffffffffffff1673ffffffffffffffffffffffffffffffffffffffff168152602001908152602001600020600101548662002b9c90919063ffffffff16565b62002bb490919063ffffffff16565b905062001825818462002bcc90919063ffffffff16565b92506200183d85608001513387604001518562002be4565b620018b1856080015133600c60008e73ffffffffffffffffffffffffffffffffffffffff1673ffffffffffffffffffffffffffffffffffffffff16815260200190815260200160002060000160009054906101000a900473ffffffffffffffffffffffffffffffffffffffff168462002be4565b620018e5856080015133600360009054906101000a900473ffffffffffffffffffffffffffffffffffffffff168662002be4565b601060008154620018f69062004364565b9190508190558560c001818152505062001930620019208960015462002b9c90919063ffffffff16565b4262002c7390919063ffffffff16565b8560e0018181525050600285610100019060038111156200197a577f4e487b7100000000000000000000000000000000000000000000000000000000600052602160045260246000fd5b90816003811115620019b5577f4e487b7100000000000000000000000000000000000000000000000000000000600052602160045260246000fd5b8152505084600e600088815260200190815260200160002060008201518160000160006101000a81548173ffffffffffffffffffffffffffffffffffffffff021916908373ffffffffffffffffffffffffffffffffffffffff1602179055506020820151816001015560408201518160020160006101000a81548173ffffffffffffffffffffffffffffffffffffffff021916908373ffffffffffffffffffffffffffffffffffffffff16021790555060608201518160030160006101000a81548173ffffffffffffffffffffffffffffffffffffffff021916908373ffffffffffffffffffffffffffffffffffffffff16021790555060808201518160040160006101000a81548173ffffffffffffffffffffffffffffffffffffffff021916908373ffffffffffffffffffffffffffffffffffffffff16021790555060a0820151816005015560c0820151816006015560e082015181600701556101008201518160080160006101000a81548160ff0219169083600381111562001b64577f4e487b7100000000000000000000000000000000000000000000000000000000600052602160045260246000fd5b02179055509050506040518060a001604052803373ffffffffffffffffffffffffffffffffffffffff1681526020018b73ffffffffffffffffffffffffffffffffffffffff1681526020018a8152602001866060015173ffffffffffffffffffffffffffffffffffffffff1681526020018660e0015181525060116000601054815260200190815260200160002060008201518160000160006101000a81548173ffffffffffffffffffffffffffffffffffffffff021916908373ffffffffffffffffffffffffffffffffffffffff16021790555060208201518160010160006101000a81548173ffffffffffffffffffffffffffffffffffffffff021916908373ffffffffffffffffffffffffffffffffffffffff1602179055506040820151816002015560608201518160030160006101000a81548173ffffffffffffffffffffffffffffffffffffffff021916908373ffffffffffffffffffffffffffffffffffffffff1602179055506080820151816004015590505062001d70601054601260003373ffffffffffffffffffffffffffffffffffffffff1673ffffffffffffffffffffffffffffffffffffffff16815260200190815260200160002060008d73ffffffffffffffffffffffffffffffffffffffff1673ffffffffffffffffffffffffffffffffffffffff16815260200190815260200160002062002c8b90919063ffffffff16565b508973ffffffffffffffffffffffffffffffffffffffff163373ffffffffffffffffffffffffffffffffffffffff167f4bf6c5d0b351cb0c55b9cb229601db1286e19e42ede2fb923f8a29fe1c4fc3468760c001518c60405162001dd6929190620040af565b60405180910390a350505050505050505050565b600073ffffffffffffffffffffffffffffffffffffffff16600660003373ffffffffffffffffffffffffffffffffffffffff1673ffffffffffffffffffffffffffffffffffffffff16815260200190815260200160002060009054906101000a900473ffffffffffffffffffffffffffffffffffffffff1673ffffffffffffffffffffffffffffffffffffffff161462001ebb576040517f08c379a000000000000000000000000000000000000000000000000000000000815260040162001eb29062003f3e565b60405180910390fd5b62001ec63362002a4b565b565b600d5481565b62001ed862002962565b62001ee4600062002ca7565b565b60008060009054906101000a900473ffffffffffffffffffffffffffffffffffffffff16905090565b600360009054906101000a900473ffffffffffffffffffffffffffffffffffffffff1681565b600c6020528060005260406000206000915090508060000160009054906101000a900473ffffffffffffffffffffffffffffffffffffffff16908060010154905082565b61271081565b606062001f8d600462002b79565b905090565b60066020528060005260406000206000915054906101000a900473ffffffffffffffffffffffffffffffffffffffff1681565b606060006200204f601260008673ffffffffffffffffffffffffffffffffffffffff1673ffffffffffffffffffffffffffffffffffffffff16815260200190815260200160002060008573ffffffffffffffffffffffffffffffffffffffff1673ffffffffffffffffffffffffffffffffffffffff16815260200190815260200160002062002d6b565b90506000805b8251811015620020e55742601160008584815181106200209e577f4e487b7100000000000000000000000000000000000000000000000000000000600052603260045260246000fd5b602002602001015181526020019081526020016000206004015410620020cf578180620020cb9062004364565b9250505b8080620020dc9062004364565b91505062002055565b506000811415620020f8575050620023ca565b8067ffffffffffffffff81111562002139577f4e487b7100000000000000000000000000000000000000000000000000000000600052604160045260246000fd5b6040519080825280602002602001820160405280156200217657816020015b6200216262003296565b815260200190600190039081620021585790505b5092506000805b8351811015620023c5574260116000868481518110620021c6577f4e487b7100000000000000000000000000000000000000000000000000000000600052603260045260246000fd5b602002602001015181526020019081526020016000206004015410620023af576011600085838151811062002224577f4e487b7100000000000000000000000000000000000000000000000000000000600052603260045260246000fd5b602002602001015181526020019081526020016000206040518060a00160405290816000820160009054906101000a900473ffffffffffffffffffffffffffffffffffffffff1673ffffffffffffffffffffffffffffffffffffffff1673ffffffffffffffffffffffffffffffffffffffff1681526020016001820160009054906101000a900473ffffffffffffffffffffffffffffffffffffffff1673ffffffffffffffffffffffffffffffffffffffff1673ffffffffffffffffffffffffffffffffffffffff168152602001600282015481526020016003820160009054906101000a900473ffffffffffffffffffffffffffffffffffffffff1673ffffffffffffffffffffffffffffffffffffffff1673ffffffffffffffffffffffffffffffffffffffff168152602001600482015481525050858380620023699062004364565b945081518110620023a3577f4e487b7100000000000000000000000000000000000000000000000000000000600052603260045260246000fd5b60200260200101819052505b8080620023bc9062004364565b9150506200217d565b505050505b92915050565b60116020528060005260406000206000915090508060000160009054906101000a900473ffffffffffffffffffffffffffffffffffffffff16908060010160009054906101000a900473ffffffffffffffffffffffffffffffffffffffff16908060020154908060030160009054906101000a900473ffffffffffffffffffffffffffffffffffffffff16908060040154905085565b60105481565b60015481565b60025481565b60096020528060005260406000206000915090505481565b600360149054906101000a900460ff1615620024e3576040517f08c379a0000000000000000000000000000000000000000000000000000000008152600401620024da906200404e565b60405180910390fd5b82600360006101000a81548173ffffffffffffffffffffffffffffffffffffffff021916908373ffffffffffffffffffffffffffffffffffffffff16021790555081600181905550806002819055506200254960006007620029e790919063ffffffff16565b50620025558462002ca7565b50505050565b6200256562002962565b6200257b816007620029e790919063ffffffff16565b5050565b6200258962002962565b600073ffffffffffffffffffffffffffffffffffffffff168173ffffffffffffffffffffffffffffffffffffffff161415620025fc576040517f08c379a0000000000000000000000000000000000000000000000000000000008152600401620025f39062003eb6565b60405180910390fd5b620026078162002ca7565b50565b600062002618838362001196565b90506000600f6000838152602001908152602001600020549050600e600082815260200190815260200160002060020160009054906101000a900473ffffffffffffffffffffffffffffffffffffffff1673ffffffffffffffffffffffffffffffffffffffff163373ffffffffffffffffffffffffffffffffffffffff1614620026d9576040517f08c379a0000000000000000000000000000000000000000000000000000000008152600401620026d09062003f60565b60405180910390fd5b60038081111562002713577f4e487b7100000000000000000000000000000000000000000000000000000000600052602160045260246000fd5b600e600083815260200190815260200160002060080160009054906101000a900460ff16600381111562002770577f4e487b7100000000000000000000000000000000000000000000000000000000600052602160045260246000fd5b1415620027b4576040517f08c379a0000000000000000000000000000000000000000000000000000000008152600401620027ab906200400a565b60405180910390fd5b6003600e600083815260200190815260200160002060080160006101000a81548160ff0219169083600381111562002815577f4e487b7100000000000000000000000000000000000000000000000000000000600052602160045260246000fd5b02179055508373ffffffffffffffffffffffffffffffffffffffff163373ffffffffffffffffffffffffffffffffffffffff167f29c8b07909eafbd082921d07edc6a036182ce741ce3ec4f6ebf972abaea877b88560405162002879919062004092565b60405180910390a350505050565b600e6020528060005260406000206000915090508060000160009054906101000a900473ffffffffffffffffffffffffffffffffffffffff16908060010154908060020160009054906101000a900473ffffffffffffffffffffffffffffffffffffffff16908060030160009054906101000a900473ffffffffffffffffffffffffffffffffffffffff16908060040160009054906101000a900473ffffffffffffffffffffffffffffffffffffffff16908060050154908060060154908060070154908060080160009054906101000a900460ff16905089565b6200296c62002d8e565b73ffffffffffffffffffffffffffffffffffffffff166200298c62001ee6565b73ffffffffffffffffffffffffffffffffffffffff1614620029e5576040517f08c379a0000000000000000000000000000000000000000000000000000000008152600401620029dc9062003fc6565b60405180910390fd5b565b600062002a11836000018373ffffffffffffffffffffffffffffffffffffffff1660001b62002d96565b905092915050565b600062002a43836000018373ffffffffffffffffffffffffffffffffffffffff1660001b62002e0a565b905092915050565b60003060405162002a5c9062003307565b62002a68919062003c27565b604051809103906000f08015801562002a85573d6000803e3d6000fd5b5090508073ffffffffffffffffffffffffffffffffffffffff1663f2fde38b836040518263ffffffff1660e01b815260040162002ac3919062003c27565b600060405180830381600087803b15801562002ade57600080fd5b505af115801562002af3573d6000803e3d6000fd5b5050505080600660008473ffffffffffffffffffffffffffffffffffffffff1673ffffffffffffffffffffffffffffffffffffffff16815260200190815260200160002060006101000a81548173ffffffffffffffffffffffffffffffffffffffff021916908373ffffffffffffffffffffffffffffffffffffffff1602179055505050565b6060600062002b8b8360000162002e2d565b905060608190508092505050919050565b6000818362002bac919062004215565b905092915050565b6000818362002bc49190620041dd565b905092915050565b6000818362002bdc919062004276565b905092915050565b600081141562002bf45762002c6d565b600073ffffffffffffffffffffffffffffffffffffffff168473ffffffffffffffffffffffffffffffffffffffff16141562002c3c5762002c36828262002e8b565b62002c6c565b62002c6b8383838773ffffffffffffffffffffffffffffffffffffffff1662002f54909392919063ffffffff16565b5b5b50505050565b6000818362002c83919062004180565b905092915050565b600062002c9f836000018360001b62002d96565b905092915050565b60008060009054906101000a900473ffffffffffffffffffffffffffffffffffffffff169050816000806101000a81548173ffffffffffffffffffffffffffffffffffffffff021916908373ffffffffffffffffffffffffffffffffffffffff1602179055508173ffffffffffffffffffffffffffffffffffffffff168173ffffffffffffffffffffffffffffffffffffffff167f8be0079c531659141344cd1fd0a4f28419497f9722a3daafe3b4186f6b6457e060405160405180910390a35050565b6060600062002d7d8360000162002e2d565b905060608190508092505050919050565b600033905090565b600062002da4838362002e0a565b62002dff57826000018290806001815401808255809150506001900390600052602060002001600090919091909150558260000180549050836001016000848152602001908152602001600020819055506001905062002e04565b600090505b92915050565b600080836001016000848152602001908152602001600020541415905092915050565b60608160000180548060200260200160405190810160405280929190818152602001828054801562002e7f57602002820191906000526020600020905b81548152602001906001019080831162002e6a575b50505050509050919050565b600081141562002e9b5762002f50565b60008273ffffffffffffffffffffffffffffffffffffffff168260405162002ec39062003c10565b60006040518083038185875af1925050503d806000811462002f02576040519150601f19603f3d011682016040523d82523d6000602084013e62002f07565b606091505b505090508062002f4e576040517f08c379a000000000000000000000000000000000000000000000000000000000815260040162002f459062003e94565b60405180910390fd5b505b5050565b62002fdb846323b872dd60e01b85858560405160240162002f789392919062003c44565b604051602081830303815290604052907bffffffffffffffffffffffffffffffffffffffffffffffffffffffff19166020820180517bffffffffffffffffffffffffffffffffffffffffffffffffffffffff838183161783525050505062002fe1565b50505050565b600062003045826040518060400160405280602081526020017f5361666545524332303a206c6f772d6c6576656c2063616c6c206661696c65648152508573ffffffffffffffffffffffffffffffffffffffff16620030b09092919063ffffffff16565b9050600081511115620030ab5780806020019051810190620030689190620035e6565b620030aa576040517f08c379a0000000000000000000000000000000000000000000000000000000008152600401620030a19062004070565b60405180910390fd5b5b505050565b6060620030c18484600085620030ca565b90509392505050565b60608247101562003112576040517f08c379a0000000000000000000000000000000000000000000000000000000008152600401620031099062003f1c565b60405180910390fd5b6000808673ffffffffffffffffffffffffffffffffffffffff1685876040516200313d919062003bf7565b60006040518083038185875af1925050503d80600081146200317c576040519150601f19603f3d011682016040523d82523d6000602084013e62003181565b606091505b50915091506200319487838387620031a0565b92505050949350505050565b606083156200320b576000835114156200320257620031bf8562003220565b62003201576040517f08c379a0000000000000000000000000000000000000000000000000000000008152600401620031f8906200402c565b60405180910390fd5b5b82905062003218565b62003217838362003243565b5b949350505050565b6000808273ffffffffffffffffffffffffffffffffffffffff163b119050919050565b600082511115620032575781518083602001fd5b806040517f08c379a00000000000000000000000000000000000000000000000000000000081526004016200328d919062003e2c565b60405180910390fd5b6040518060a00160405280600073ffffffffffffffffffffffffffffffffffffffff168152602001600073ffffffffffffffffffffffffffffffffffffffff16815260200160008152602001600073ffffffffffffffffffffffffffffffffffffffff168152602001600081525090565b610a26806200488983390190565b600081359050620033268162004820565b92915050565b6000815190506200333d8162004820565b92915050565b60008151905062003354816200483a565b92915050565b6000813590506200336b8162004854565b92915050565b60008135905062003382816200486e565b92915050565b6000602082840312156200339b57600080fd5b6000620033ab8482850162003315565b91505092915050565b600060208284031215620033c757600080fd5b6000620033d7848285016200332c565b91505092915050565b60008060408385031215620033f457600080fd5b6000620034048582860162003315565b9250506020620034178582860162003315565b9150509250929050565b6000806000606084860312156200343757600080fd5b6000620034478682870162003315565b93505060206200345a8682870162003315565b92505060406200346d8682870162003371565b9150509250925092565b600080600080608085870312156200348e57600080fd5b60006200349e8782880162003315565b9450506020620034b18782880162003315565b9350506040620034c48782880162003371565b9250506060620034d78782880162003371565b91505092959194509250565b60008060408385031215620034f757600080fd5b6000620035078582860162003315565b92505060206200351a8582860162003371565b9150509250929050565b600080600080608085870312156200353b57600080fd5b60006200354b8782880162003315565b94505060206200355e8782880162003371565b9350506040620035718782880162003315565b9250506060620035848782880162003371565b91505092959194509250565b600080600060608486031215620035a657600080fd5b6000620035b68682870162003315565b9350506020620035c98682870162003371565b9250506040620035dc8682870162003371565b9150509250925092565b600060208284031215620035f957600080fd5b6000620036098482850162003343565b91505092915050565b6000602082840312156200362557600080fd5b600062003635848285016200335a565b91505092915050565b6000602082840312156200365157600080fd5b6000620036618482850162003371565b91505092915050565b60006200367883836200369e565b60208301905092915050565b600062003692838362003b18565b60a08301905092915050565b620036a981620042b1565b82525050565b620036ba81620042b1565b82525050565b620036d5620036cf82620042b1565b620043b2565b82525050565b6000620036e882620040fc565b620036f4818562004142565b93506200370183620040dc565b8060005b83811015620037385781516200371c88826200366a565b9750620037298362004128565b92505060018101905062003705565b5085935050505092915050565b6000620037528262004107565b6200375e818562004153565b93506200376b83620040ec565b8060005b83811015620037a257815162003786888262003684565b9750620037938362004135565b9250506001810190506200376f565b5085935050505092915050565b620037ba81620042c5565b82525050565b620037cb81620042d1565b82525050565b6000620037de8262004112565b620037ea818562004164565b9350620037fc8185602086016200432e565b80840191505092915050565b62003813816200431a565b82525050565b600062003826826200411d565b6200383281856200416f565b9350620038448185602086016200432e565b6200384f8162004471565b840191505092915050565b6000620038696015836200416f565b915062003876826200448f565b602082019050919050565b6000620038906020836200416f565b91506200389d82620044b8565b602082019050919050565b6000620038b76011836200416f565b9150620038c482620044e1565b602082019050919050565b6000620038de6026836200416f565b9150620038eb826200450a565b604082019050919050565b6000620039056012836200416f565b9150620039128262004559565b602082019050919050565b60006200392c6021836200416f565b9150620039398262004582565b604082019050919050565b6000620039536026836200416f565b91506200396082620045d1565b604082019050919050565b60006200397a6018836200416f565b9150620039878262004620565b602082019050919050565b6000620039a1602c836200416f565b9150620039ae8262004649565b604082019050919050565b6000620039c86009836200416f565b9150620039d58262004698565b602082019050919050565b6000620039ef601a836200416f565b9150620039fc82620046c1565b602082019050919050565b600062003a166020836200416f565b915062003a2382620046ea565b602082019050919050565b600062003a3d6015836200416f565b915062003a4a8262004713565b602082019050919050565b600062003a64601b836200416f565b915062003a71826200473c565b602082019050919050565b600062003a8b60008362004164565b915062003a988262004765565b600082019050919050565b600062003ab2601d836200416f565b915062003abf8262004768565b602082019050919050565b600062003ad96013836200416f565b915062003ae68262004791565b602082019050919050565b600062003b00602a836200416f565b915062003b0d82620047ba565b604082019050919050565b60a08201600082015162003b3060008501826200369e565b50602082015162003b4560208501826200369e565b50604082015162003b5a604085018262003b8a565b50606082015162003b6f60608501826200369e565b50608082015162003b84608085018262003b8a565b50505050565b62003b958162004310565b82525050565b62003ba68162004310565b82525050565b62003bc162003bbb8262004310565b620043da565b82525050565b600062003bd58285620036c0565b60148201915062003be7828462003bac565b6020820191508190509392505050565b600062003c058284620037d1565b915081905092915050565b600062003c1d8262003a7c565b9150819050919050565b600060208201905062003c3e6000830184620036af565b92915050565b600060608201905062003c5b6000830186620036af565b62003c6a6020830185620036af565b62003c79604083018462003b9b565b949350505050565b600060a08201905062003c986000830188620036af565b62003ca76020830187620036af565b62003cb6604083018662003b9b565b62003cc56060830185620036af565b62003cd4608083018462003b9b565b9695505050505050565b600060408201905062003cf56000830185620036af565b62003d04602083018462003b9b565b9392505050565b60006101208201905062003d23600083018c620036af565b62003d32602083018b62003b9b565b62003d41604083018a620036af565b62003d506060830189620036af565b62003d5f6080830188620036af565b62003d6e60a083018762003b9b565b62003d7d60c083018662003b9b565b62003d8c60e083018562003b9b565b62003d9c61010083018462003808565b9a9950505050505050505050565b6000602082019050818103600083015262003dc68184620036db565b905092915050565b6000602082019050818103600083015262003dea818462003745565b905092915050565b600060208201905062003e096000830184620037af565b92915050565b600060208201905062003e266000830184620037c0565b92915050565b6000602082019050818103600083015262003e48818462003819565b905092915050565b6000602082019050818103600083015262003e6b816200385a565b9050919050565b6000602082019050818103600083015262003e8d8162003881565b9050919050565b6000602082019050818103600083015262003eaf81620038a8565b9050919050565b6000602082019050818103600083015262003ed181620038cf565b9050919050565b6000602082019050818103600083015262003ef381620038f6565b9050919050565b6000602082019050818103600083015262003f15816200391d565b9050919050565b6000602082019050818103600083015262003f378162003944565b9050919050565b6000602082019050818103600083015262003f59816200396b565b9050919050565b6000602082019050818103600083015262003f7b8162003992565b9050919050565b6000602082019050818103600083015262003f9d81620039b9565b9050919050565b6000602082019050818103600083015262003fbf81620039e0565b9050919050565b6000602082019050818103600083015262003fe18162003a07565b9050919050565b60006020820190508181036000830152620040038162003a2e565b9050919050565b60006020820190508181036000830152620040258162003a55565b9050919050565b60006020820190508181036000830152620040478162003aa3565b9050919050565b60006020820190508181036000830152620040698162003aca565b9050919050565b600060208201905081810360008301526200408b8162003af1565b9050919050565b6000602082019050620040a9600083018462003b9b565b92915050565b6000604082019050620040c6600083018562003b9b565b620040d5602083018462003b9b565b9392505050565b6000819050602082019050919050565b6000819050602082019050919050565b600081519050919050565b600081519050919050565b600081519050919050565b600081519050919050565b6000602082019050919050565b6000602082019050919050565b600082825260208201905092915050565b600082825260208201905092915050565b600081905092915050565b600082825260208201905092915050565b60006200418d8262004310565b91506200419a8362004310565b9250827fffffffffffffffffffffffffffffffffffffffffffffffffffffffffffffffff03821115620041d257620041d1620043e4565b5b828201905092915050565b6000620041ea8262004310565b9150620041f78362004310565b9250826200420a576200420962004413565b5b828204905092915050565b6000620042228262004310565b91506200422f8362004310565b9250817fffffffffffffffffffffffffffffffffffffffffffffffffffffffffffffffff04831182151516156200426b576200426a620043e4565b5b828202905092915050565b6000620042838262004310565b9150620042908362004310565b925082821015620042a657620042a5620043e4565b5b828203905092915050565b6000620042be82620042f0565b9050919050565b60008115159050919050565b6000819050919050565b6000819050620042eb8262004809565b919050565b600073ffffffffffffffffffffffffffffffffffffffff82169050919050565b6000819050919050565b60006200432782620042db565b9050919050565b60005b838110156200434e57808201518184015260208101905062004331565b838111156200435e576000848401525b50505050565b6000620043718262004310565b91507fffffffffffffffffffffffffffffffffffffffffffffffffffffffffffffffff821415620043a757620043a6620043e4565b5b600182019050919050565b6000620043bf82620043c6565b9050919050565b6000620043d38262004482565b9050919050565b6000819050919050565b7f4e487b7100000000000000000000000000000000000000000000000000000000600052601160045260246000fd5b7f4e487b7100000000000000000000000000000000000000000000000000000000600052601260045260246000fd5b7f4e487b7100000000000000000000000000000000000000000000000000000000600052602160045260246000fd5b6000601f19601f8301169050919050565b60008160601b9050919050565b7f546f6b656e206973206e6f742072656e7461626c650000000000000000000000600082015250565b7f546f6b656e20776173206e6f74206f776e656420627920697473207661756c74600082015250565b7f53454e445f45544845525f4641494c4544000000000000000000000000000000600082015250565b7f4f776e61626c653a206e6577206f776e657220697320746865207a65726f206160008201527f6464726573730000000000000000000000000000000000000000000000000000602082015250565b7f436f6d6d697373696f6e20746f6f206269670000000000000000000000000000600082015250565b7f5061796d656e7420636f6e7472616374206973206e6f7420737570706f72746560008201527f6400000000000000000000000000000000000000000000000000000000000000602082015250565b7f416464726573733a20696e73756666696369656e742062616c616e636520666f60008201527f722063616c6c0000000000000000000000000000000000000000000000000000602082015250565b7f596f7520616c726561647920686176652061207661756c740000000000000000600082015250565b7f556e64656c65676174652063616e206f6e6c7920626520646f6e65206279207460008201527f6865206465706f7369746f720000000000000000000000000000000000000000602082015250565b7f57524f4e475f4645450000000000000000000000000000000000000000000000600082015250565b7f506172746e657220636f6d6d697373696f6e20746f6f20626967000000000000600082015250565b7f4f776e61626c653a2063616c6c6572206973206e6f7420746865206f776e6572600082015250565b7f52656e7420706572696f6420746f6f2073686f72740000000000000000000000600082015250565b7f546f6b656e20697320616c726561647920554e52454e5441424c450000000000600082015250565b50565b7f416464726573733a2063616c6c20746f206e6f6e2d636f6e7472616374000000600082015250565b7f416c726561647920696e697469616c697a656400000000000000000000000000600082015250565b7f5361666545524332303a204552433230206f7065726174696f6e20646964206e60008201527f6f74207375636365656400000000000000000000000000000000000000000000602082015250565b600481106200481d576200481c62004442565b5b50565b6200482b81620042b1565b81146200483757600080fd5b50565b6200484581620042c5565b81146200485157600080fd5b50565b6200485f81620042d1565b81146200486b57600080fd5b50565b620048798162004310565b81146200488557600080fd5b5056fe608060405234801561001057600080fd5b50604051610a26380380610a2683398181016040528101906100329190610176565b61004e61004361009560201b60201c565b61009d60201b60201c565b80600160006101000a81548173ffffffffffffffffffffffffffffffffffffffff021916908373ffffffffffffffffffffffffffffffffffffffff160217905550506101e8565b600033905090565b60008060009054906101000a900473ffffffffffffffffffffffffffffffffffffffff169050816000806101000a81548173ffffffffffffffffffffffffffffffffffffffff021916908373ffffffffffffffffffffffffffffffffffffffff1602179055508173ffffffffffffffffffffffffffffffffffffffff168173ffffffffffffffffffffffffffffffffffffffff167f8be0079c531659141344cd1fd0a4f28419497f9722a3daafe3b4186f6b6457e060405160405180910390a35050565b600081519050610170816101d1565b92915050565b60006020828403121561018857600080fd5b600061019684828501610161565b91505092915050565b60006101aa826101b1565b9050919050565b600073ffffffffffffffffffffffffffffffffffffffff82169050919050565b6101da8161019f565b81146101e557600080fd5b50565b61082f806101f76000396000f3fe608060405234801561001057600080fd5b50600436106100575760003560e01c80632423e90d1461005c578063715018a61461007a5780638da5cb5b14610084578063d2f0922a146100a2578063f2fde38b146100be575b600080fd5b6100646100da565b60405161007191906105df565b60405180910390f35b610082610100565b005b61008c610114565b60405161009991906105df565b60405180910390f35b6100bc60048036038101906100b791906104e0565b61013d565b005b6100d860048036038101906100d391906104b7565b6102aa565b005b600160009054906101000a900473ffffffffffffffffffffffffffffffffffffffff1681565b61010861032e565b61011260006103ac565b565b60008060009054906101000a900473ffffffffffffffffffffffffffffffffffffffff16905090565b61014561032e565b8282600160009054906101000a900473ffffffffffffffffffffffffffffffffffffffff1673ffffffffffffffffffffffffffffffffffffffff1663094f743e83836040518363ffffffff1660e01b81526004016101a4929190610631565b60206040518083038186803b1580156101bc57600080fd5b505afa1580156101d0573d6000803e3d6000fd5b505050506040513d601f19601f820116820180604052508101906101f4919061052f565b15610234576040517f08c379a000000000000000000000000000000000000000000000000000000000815260040161022b9061067a565b60405180910390fd5b8473ffffffffffffffffffffffffffffffffffffffff166323b872dd3085876040518463ffffffff1660e01b8152600401610271939291906105fa565b600060405180830381600087803b15801561028b57600080fd5b505af115801561029f573d6000803e3d6000fd5b505050505050505050565b6102b261032e565b600073ffffffffffffffffffffffffffffffffffffffff168173ffffffffffffffffffffffffffffffffffffffff161415610322576040517f08c379a00000000000000000000000000000000000000000000000000000000081526004016103199061065a565b60405180910390fd5b61032b816103ac565b50565b610336610470565b73ffffffffffffffffffffffffffffffffffffffff16610354610114565b73ffffffffffffffffffffffffffffffffffffffff16146103aa576040517f08c379a00000000000000000000000000000000000000000000000000000000081526004016103a19061069a565b60405180910390fd5b565b60008060009054906101000a900473ffffffffffffffffffffffffffffffffffffffff169050816000806101000a81548173ffffffffffffffffffffffffffffffffffffffff021916908373ffffffffffffffffffffffffffffffffffffffff1602179055508173ffffffffffffffffffffffffffffffffffffffff168173ffffffffffffffffffffffffffffffffffffffff167f8be0079c531659141344cd1fd0a4f28419497f9722a3daafe3b4186f6b6457e060405160405180910390a35050565b600033905090565b600081359050610487816107b4565b92915050565b60008151905061049c816107cb565b92915050565b6000813590506104b1816107e2565b92915050565b6000602082840312156104c957600080fd5b60006104d784828501610478565b91505092915050565b6000806000606084860312156104f557600080fd5b600061050386828701610478565b9350506020610514868287016104a2565b925050604061052586828701610478565b9150509250925092565b60006020828403121561054157600080fd5b600061054f8482850161048d565b91505092915050565b610561816106cb565b82525050565b60006105746026836106ba565b915061057f82610713565b604082019050919050565b60006105976018836106ba565b91506105a282610762565b602082019050919050565b60006105ba6020836106ba565b91506105c58261078b565b602082019050919050565b6105d981610709565b82525050565b60006020820190506105f46000830184610558565b92915050565b600060608201905061060f6000830186610558565b61061c6020830185610558565b61062960408301846105d0565b949350505050565b60006040820190506106466000830185610558565b61065360208301846105d0565b9392505050565b6000602082019050818103600083015261067381610567565b9050919050565b600060208201905081810360008301526106938161058a565b9050919050565b600060208201905081810360008301526106b3816105ad565b9050919050565b600082825260208201905092915050565b60006106d6826106e9565b9050919050565b60008115159050919050565b600073ffffffffffffffffffffffffffffffffffffffff82169050919050565b6000819050919050565b7f4f776e61626c653a206e6577206f776e657220697320746865207a65726f206160008201527f6464726573730000000000000000000000000000000000000000000000000000602082015250565b7f52656e7446756e3a20546f6b656e2069732072656e7465640000000000000000600082015250565b7f4f776e61626c653a2063616c6c6572206973206e6f7420746865206f776e6572600082015250565b6107bd816106cb565b81146107c857600080fd5b50565b6107d4816106dd565b81146107df57600080fd5b50565b6107eb81610709565b81146107f657600080fd5b5056fea2646970667358221220df551ed5e333ab8a0b7b338d20ee5cef99131f2a2bda017785e00b1364c2a95a64736f6c63430008040033a2646970667358221220a4ee75a0fc1d5a2782b96d62e32f991dfdde834eccff112610f296ae6df0ed5a64736f6c63430008040033",
  "devdoc": {
    "kind": "dev",
    "methods": {
      "cancelLend(address,uint256)": {
        "params": {
          "contract_": "The NFToken contract that issue the tokens",
          "tokenId": "The id the NFToken"
        }
      },
      "getTokenHash(address,uint256)": {
        "details": "Helper function to compute hash for a given token"
      },
      "lend(address,uint256,address,uint256)": {
        "params": {
          "contract_": "The NFToken contract that issue the tokens",
          "payment": "The contract of payment way",
          "tokenId": "The id the NFToken",
          "unitFee": "The unit rental price"
        }
      },
      "owner()": {
        "details": "Returns the address of the current owner."
      },
      "renounceOwnership()": {
        "details": "Leaves the contract without owner. It will not be possible to call `onlyOwner` functions anymore. Can only be called by the current owner. NOTE: Renouncing ownership will leave the contract without an owner, thereby removing any functionality that is only available to the owner."
      },
      "rent(address,uint256,uint256)": {
        "params": {
          "amount": "The amount of unitTime and this rental's total time will be unitTime * amount",
          "contract_": "The NFToken contract that issue the tokens",
          "tokenId": "The id the NFToken"
        }
      },
      "transferOwnership(address)": {
        "details": "Transfers ownership of the contract to a new account (`newOwner`). Can only be called by the current owner."
      }
    },
    "version": 1
  },
  "userdoc": {
    "events": {
      "LentCanceled(address,address,uint256)": {
        "notice": "Emitted on each token lent cancel"
      },
      "TokenLent(address,address,uint256,uint256)": {
        "notice": "Emitted on each token lent"
      },
      "TokenRented(address,uint256,address,uint256)": {
        "notice": "Emitted on each token rental"
      }
    },
    "kind": "user",
    "methods": {
      "addPayment(address)": {
        "notice": "add payment"
      },
      "cancelLend(address,uint256)": {
        "notice": "cancel lend an NFToken will just make it unrentable, the exist rents won't be affected."
      },
      "createVault()": {
        "notice": "create a vault owned by msg.sender"
      },
      "getAliveRentals(address,address)": {
        "notice": "check all alive rentals for a given renter."
      },
      "getOwners()": {
        "notice": "owners getter"
      },
      "getPaymentContracts()": {
        "notice": "getPaymentContracts getter"
      },
      "isRented(address,uint256)": {
        "notice": "check if a given token is rented or not"
      },
      "lend(address,uint256,address,uint256)": {
        "notice": "lend an NFToken"
      },
      "nextTokenIdx()": {
        "notice": "An incrementing counter to create unique ids for each token"
      },
      "partners(address)": {
        "notice": "A mapping pointing partner's contract address to partner structs"
      },
      "payments(address)": {
        "notice": "A mapping pointing partner's contract address to its total fee"
      },
      "rent(address,uint256,uint256)": {
        "notice": "rent a token only if the token is available"
      },
      "rentals(uint256)": {
        "notice": "A mapping pointing rentIdx to the rental dev rentIdx -> rental"
      },
      "setAdVault(address)": {
        "notice": "adVault setter"
      },
      "setCommission(uint256)": {
        "notice": "Commission setter"
      },
      "setPartners(address,address,uint256)": {
        "notice": "partners setter"
      },
      "setUnitTime(uint256)": {
        "notice": "UnitTime setter"
      },
      "tokenDetails(uint256)": {
        "notice": "A mapping pointing tokenId to TokenDetail structs"
      },
      "tokenIdxes(bytes32)": {
        "notice": "A mapping pointing token hash to tokenId"
      },
      "totalRentCount()": {
        "notice": "An incrementing counter to create unique idx for each rental"
      },
      "unitTime()": {
        "notice": "Minimum rental time"
      },
      "vaults(address)": {
        "notice": "A mapping pointing owner address to its asset contract."
      }
    },
    "version": 1
  },
  "storageLayout": {
    "storage": [
      {
        "astId": 7,
        "contract": "contracts/RentFun/RentFun.sol:RentFun",
        "label": "_owner",
        "offset": 0,
        "slot": "0",
        "type": "t_address"
      },
      {
        "astId": 5306,
        "contract": "contracts/RentFun/RentFun.sol:RentFun",
        "label": "unitTime",
        "offset": 0,
        "slot": "1",
        "type": "t_uint256"
      },
      {
        "astId": 5308,
        "contract": "contracts/RentFun/RentFun.sol:RentFun",
        "label": "commission",
        "offset": 0,
        "slot": "2",
        "type": "t_uint256"
      },
      {
        "astId": 5313,
        "contract": "contracts/RentFun/RentFun.sol:RentFun",
        "label": "adVault",
        "offset": 0,
        "slot": "3",
        "type": "t_address"
      },
      {
        "astId": 5315,
        "contract": "contracts/RentFun/RentFun.sol:RentFun",
        "label": "initialized",
        "offset": 20,
        "slot": "3",
        "type": "t_bool"
      },
      {
        "astId": 5318,
        "contract": "contracts/RentFun/RentFun.sol:RentFun",
        "label": "owners",
        "offset": 0,
        "slot": "4",
        "type": "t_struct(AddressSet)4905_storage"
      },
      {
        "astId": 5323,
        "contract": "contracts/RentFun/RentFun.sol:RentFun",
        "label": "vaults",
        "offset": 0,
        "slot": "6",
        "type": "t_mapping(t_address,t_address)"
      },
      {
        "astId": 5352,
        "contract": "contracts/RentFun/RentFun.sol:RentFun",
        "label": "paymentContracts",
        "offset": 0,
        "slot": "7",
        "type": "t_struct(AddressSet)4905_storage"
      },
      {
        "astId": 5357,
        "contract": "contracts/RentFun/RentFun.sol:RentFun",
        "label": "payments",
        "offset": 0,
        "slot": "9",
        "type": "t_mapping(t_address,t_uint256)"
      },
      {
        "astId": 5361,
        "contract": "contracts/RentFun/RentFun.sol:RentFun",
        "label": "partnerContracts",
        "offset": 0,
        "slot": "10",
        "type": "t_struct(AddressSet)4905_storage"
      },
      {
        "astId": 5367,
        "contract": "contracts/RentFun/RentFun.sol:RentFun",
        "label": "partners",
        "offset": 0,
        "slot": "12",
        "type": "t_mapping(t_address,t_struct(Partner)5348_storage)"
      },
      {
        "astId": 5371,
        "contract": "contracts/RentFun/RentFun.sol:RentFun",
        "label": "nextTokenIdx",
        "offset": 0,
        "slot": "13",
        "type": "t_uint256"
      },
      {
        "astId": 5377,
        "contract": "contracts/RentFun/RentFun.sol:RentFun",
        "label": "tokenDetails",
        "offset": 0,
        "slot": "14",
        "type": "t_mapping(t_uint256,t_struct(TokenDetail)5343_storage)"
      },
      {
        "astId": 5382,
        "contract": "contracts/RentFun/RentFun.sol:RentFun",
        "label": "tokenIdxes",
        "offset": 0,
        "slot": "15",
        "type": "t_mapping(t_bytes32,t_uint256)"
      },
      {
        "astId": 5386,
        "contract": "contracts/RentFun/RentFun.sol:RentFun",
        "label": "totalRentCount",
        "offset": 0,
        "slot": "16",
        "type": "t_uint256"
      },
      {
        "astId": 5392,
        "contract": "contracts/RentFun/RentFun.sol:RentFun",
        "label": "rentals",
        "offset": 0,
        "slot": "17",
        "type": "t_mapping(t_uint256,t_struct(Rental)6348_storage)"
      },
      {
        "astId": 5400,
        "contract": "contracts/RentFun/RentFun.sol:RentFun",
        "label": "personalRentals",
        "offset": 0,
        "slot": "18",
        "type": "t_mapping(t_address,t_mapping(t_address,t_struct(UintSet)5062_storage))"
      }
    ],
    "types": {
      "t_address": {
        "encoding": "inplace",
        "label": "address",
        "numberOfBytes": "20"
      },
      "t_array(t_bytes32)dyn_storage": {
        "base": "t_bytes32",
        "encoding": "dynamic_array",
        "label": "bytes32[]",
        "numberOfBytes": "32"
      },
      "t_bool": {
        "encoding": "inplace",
        "label": "bool",
        "numberOfBytes": "1"
      },
      "t_bytes32": {
        "encoding": "inplace",
        "label": "bytes32",
        "numberOfBytes": "32"
      },
      "t_enum(RentStatus)5199": {
        "encoding": "inplace",
        "label": "enum Enum.RentStatus",
        "numberOfBytes": "1"
      },
      "t_mapping(t_address,t_address)": {
        "encoding": "mapping",
        "key": "t_address",
        "label": "mapping(address => address)",
        "numberOfBytes": "32",
        "value": "t_address"
      },
      "t_mapping(t_address,t_mapping(t_address,t_struct(UintSet)5062_storage))": {
        "encoding": "mapping",
        "key": "t_address",
        "label": "mapping(address => mapping(address => struct EnumerableSet.UintSet))",
        "numberOfBytes": "32",
        "value": "t_mapping(t_address,t_struct(UintSet)5062_storage)"
      },
      "t_mapping(t_address,t_struct(Partner)5348_storage)": {
        "encoding": "mapping",
        "key": "t_address",
        "label": "mapping(address => struct RentFun.Partner)",
        "numberOfBytes": "32",
        "value": "t_struct(Partner)5348_storage"
      },
      "t_mapping(t_address,t_struct(UintSet)5062_storage)": {
        "encoding": "mapping",
        "key": "t_address",
        "label": "mapping(address => struct EnumerableSet.UintSet)",
        "numberOfBytes": "32",
        "value": "t_struct(UintSet)5062_storage"
      },
      "t_mapping(t_address,t_uint256)": {
        "encoding": "mapping",
        "key": "t_address",
        "label": "mapping(address => uint256)",
        "numberOfBytes": "32",
        "value": "t_uint256"
      },
      "t_mapping(t_bytes32,t_uint256)": {
        "encoding": "mapping",
        "key": "t_bytes32",
        "label": "mapping(bytes32 => uint256)",
        "numberOfBytes": "32",
        "value": "t_uint256"
      },
      "t_mapping(t_uint256,t_struct(Rental)6348_storage)": {
        "encoding": "mapping",
        "key": "t_uint256",
        "label": "mapping(uint256 => struct IRentFun.Rental)",
        "numberOfBytes": "32",
        "value": "t_struct(Rental)6348_storage"
      },
      "t_mapping(t_uint256,t_struct(TokenDetail)5343_storage)": {
        "encoding": "mapping",
        "key": "t_uint256",
        "label": "mapping(uint256 => struct RentFun.TokenDetail)",
        "numberOfBytes": "32",
        "value": "t_struct(TokenDetail)5343_storage"
      },
      "t_struct(AddressSet)4905_storage": {
        "encoding": "inplace",
        "label": "struct EnumerableSet.AddressSet",
        "members": [
          {
            "astId": 4904,
            "contract": "contracts/RentFun/RentFun.sol:RentFun",
            "label": "_inner",
            "offset": 0,
            "slot": "0",
            "type": "t_struct(Set)4590_storage"
          }
        ],
        "numberOfBytes": "64"
      },
      "t_struct(Partner)5348_storage": {
        "encoding": "inplace",
        "label": "struct RentFun.Partner",
        "members": [
          {
            "astId": 5345,
            "contract": "contracts/RentFun/RentFun.sol:RentFun",
            "label": "feeReceiver",
            "offset": 0,
            "slot": "0",
            "type": "t_address"
          },
          {
            "astId": 5347,
            "contract": "contracts/RentFun/RentFun.sol:RentFun",
            "label": "commission",
            "offset": 0,
            "slot": "1",
            "type": "t_uint256"
          }
        ],
        "numberOfBytes": "64"
      },
      "t_struct(Rental)6348_storage": {
        "encoding": "inplace",
        "label": "struct IRentFun.Rental",
        "members": [
          {
            "astId": 6339,
            "contract": "contracts/RentFun/RentFun.sol:RentFun",
            "label": "renter",
            "offset": 0,
            "slot": "0",
            "type": "t_address"
          },
          {
            "astId": 6341,
            "contract": "contracts/RentFun/RentFun.sol:RentFun",
            "label": "contract_",
            "offset": 0,
            "slot": "1",
            "type": "t_address"
          },
          {
            "astId": 6343,
            "contract": "contracts/RentFun/RentFun.sol:RentFun",
            "label": "tokenId",
            "offset": 0,
            "slot": "2",
            "type": "t_uint256"
          },
          {
            "astId": 6345,
            "contract": "contracts/RentFun/RentFun.sol:RentFun",
            "label": "vault",
            "offset": 0,
            "slot": "3",
            "type": "t_address"
          },
          {
            "astId": 6347,
            "contract": "contracts/RentFun/RentFun.sol:RentFun",
            "label": "endTime",
            "offset": 0,
            "slot": "4",
            "type": "t_uint256"
          }
        ],
        "numberOfBytes": "160"
      },
      "t_struct(Set)4590_storage": {
        "encoding": "inplace",
        "label": "struct EnumerableSet.Set",
        "members": [
          {
            "astId": 4585,
            "contract": "contracts/RentFun/RentFun.sol:RentFun",
            "label": "_values",
            "offset": 0,
            "slot": "0",
            "type": "t_array(t_bytes32)dyn_storage"
          },
          {
            "astId": 4589,
            "contract": "contracts/RentFun/RentFun.sol:RentFun",
            "label": "_indexes",
            "offset": 0,
            "slot": "1",
            "type": "t_mapping(t_bytes32,t_uint256)"
          }
        ],
        "numberOfBytes": "64"
      },
      "t_struct(TokenDetail)5343_storage": {
        "encoding": "inplace",
        "label": "struct RentFun.TokenDetail",
        "members": [
          {
            "astId": 5325,
            "contract": "contracts/RentFun/RentFun.sol:RentFun",
            "label": "contract_",
            "offset": 0,
            "slot": "0",
            "type": "t_address"
          },
          {
            "astId": 5327,
            "contract": "contracts/RentFun/RentFun.sol:RentFun",
            "label": "tokenId",
            "offset": 0,
            "slot": "1",
            "type": "t_uint256"
          },
          {
            "astId": 5329,
            "contract": "contracts/RentFun/RentFun.sol:RentFun",
            "label": "depositor",
            "offset": 0,
            "slot": "2",
            "type": "t_address"
          },
          {
            "astId": 5331,
            "contract": "contracts/RentFun/RentFun.sol:RentFun",
            "label": "vault",
            "offset": 0,
            "slot": "3",
            "type": "t_address"
          },
          {
            "astId": 5333,
            "contract": "contracts/RentFun/RentFun.sol:RentFun",
            "label": "payment",
            "offset": 0,
            "slot": "4",
            "type": "t_address"
          },
          {
            "astId": 5335,
            "contract": "contracts/RentFun/RentFun.sol:RentFun",
            "label": "unitFee",
            "offset": 0,
            "slot": "5",
            "type": "t_uint256"
          },
          {
            "astId": 5337,
            "contract": "contracts/RentFun/RentFun.sol:RentFun",
            "label": "lastRentIdx",
            "offset": 0,
            "slot": "6",
            "type": "t_uint256"
          },
          {
            "astId": 5339,
            "contract": "contracts/RentFun/RentFun.sol:RentFun",
            "label": "endTime",
            "offset": 0,
            "slot": "7",
            "type": "t_uint256"
          },
          {
            "astId": 5342,
            "contract": "contracts/RentFun/RentFun.sol:RentFun",
            "label": "rentStatus",
            "offset": 0,
            "slot": "8",
            "type": "t_enum(RentStatus)5199"
          }
        ],
        "numberOfBytes": "288"
      },
      "t_struct(UintSet)5062_storage": {
        "encoding": "inplace",
        "label": "struct EnumerableSet.UintSet",
        "members": [
          {
            "astId": 5061,
            "contract": "contracts/RentFun/RentFun.sol:RentFun",
            "label": "_inner",
            "offset": 0,
            "slot": "0",
            "type": "t_struct(Set)4590_storage"
          }
        ],
        "numberOfBytes": "64"
      },
      "t_uint256": {
        "encoding": "inplace",
        "label": "uint256",
        "numberOfBytes": "32"
      }
    }
  }
}